:100000000C94B0050C94CD050C94CD050C94CD0545
:100010000C94CD050C94CD050C94CD050C94CD0518
:100020000C94CD050C94CD050C94D2320C94A533D0
:100030000C947B2C0C94CD050C94CD050C94CD0523
:100040000C94CD050C94CD050C94CD050C94CD05E8
:100050000C94CD050C94332D0C94CD050C94CD054A
:100060000C94CD050C94CD050C94CD050C94CD05C8
:100070000C94CD050C94CD050C94CD050C94CD05B8
:100080000C94CD050C94CD050C94CD050C94CD05A8
:100090000C94CD050C94CD050C94CD050C94CD0598
:1000A0000C94CD050C94CD050C94CD056800690029
:1000B0006A006B0000006C006D006E006F000000B5
:1000C000700071007200730009000100010001005E
:1000D000010000000100010001000100000001001A
:1000E0000100010001000100010001000100010008
:1000F00000000100010001000100000001000100FA
:1001000001000100010001000100010001000000E8
:1001100001000100010001000000010001000100D8
:10012000010001000A0025303862003A2000253025
:100130003258000A722F632030313233343536376B
:100140000A00FD377A585A000004E6D6B446020089
:10015000210116000000742FE5A3E00107009E5D59
:10016000003D8889C65436C3174FE4D0B609D2ACD7
:100170003C463ADD76A691A7A9633188733702839E
:1001800025E156B954BD66799713372A8D947E10B0
:1001900051FF35E1DB692AB8C41EF4805498D46D50
:1001A00018F332C0A32F6EFC886D5AA9244366B39E
:1001B000CCD43029BA53CB91D4C5A712B38C18FD37
:1001C000E9BC78E1C1B4A9E21655801ADA452929BB
:1001D0002E42F5EE88BE968B93485C1B1CAB492CD7
:1001E000BDF1B1F8403E741D9DC5BFDEF26AB43466
:1001F0005B9585770EA3E6FAA73E762C2E32530048
:10020000000014A067573F0CDA5D0001BA018802B4
:100210000000C4870D6EB1C467FB0200000000043B
:10022000595A313A0964656C6179282A31306D7305
:10023000293A2025750A323A09696E746572766129
:100240006C286D73293A2025750A333A096D617857
:100250005F73706565643A2025750A343A097469DC
:100260006D655F746F5F6D61783A2025750A353A68
:1002700009776865656C5F6D61785F73706565644B
:100280003A2025750A363A09776865656C5F7469A6
:100290006D655F746F5F6D61783A2025750A007037
:1002A0003A097072696E742076616C7565730A64C0
:1002B0003A097365742064656661756C74730A75B8
:1002C000703A092B310A646E3A092D310A6C743A7E
:1002D000092B31300A72743A092D31300A455343E3
:1002E0002F713A09717569740A0A73706565642023
:1002F0003D2064656C7461202A206D61785F7370A5
:10030000656564202A2028726570656174202F203D
:1003100074696D655F746F5F6D6178290A776865D0
:1003200072652064656C74613A20637572736F72D4
:100330003D25642C20776865656C3D25640A53650E
:100340006520687474703A2F2F656E2E77696B691B
:1003500070656469612E6F72672F77696B692F4DC5
:100360006F7573655F6B6579730A004D3E20004DB4
:1003700025753A25733E20003F0A003D2025750A69
:10038000003F0A0064656661756C74730A00257528
:100390000A003F0A000A092D2056616C756573201A
:1003A0002D0A00710A000A092D204D6F7573656BC7
:1003B0006579202D0A003F00433E20004C25640A49
:1003C000000A092D20537461747573202D0A686F1B
:1003D00073745F6B6579626F6172645F6C6564737F
:1003E00028293A20253032580A6B6579626F61728C
:1003F000645F70726F746F636F6C3A20253032588F
:100400000A6B6579626F6172645F69646C653A203A
:10041000253032580A6B65796D61705F636F6E6667
:1004200069672E6E6B726F3A20253032580A7469F4
:100430006D65725F72656164333228293A20253018
:10044000386C580A002573000A092D20436F6E731B
:100450006F6C65202D0A4553432F713A09717569F8
:10046000740A6D3A096D6F7573656B65790A000AD8
:10047000092D204D61676963202D0A443A094465BE
:10048000627567204D65737361676520546F676798
:100490006C650A583A094D61747269782044656246
:1004A0007567204D6F646520546F67676C65202DFC
:1004B0002053686F77206B6579707265737365730D
:1004C00020696E206D617472697820677269640AB0
:1004D0004B3A094B6579626F6172642044656275BD
:1004E0006720546F67676C65202D2053686F7720F5
:1004F0006B65797072657373207265706F72740AC0
:100500004D3A094465627567204D6F7573652054D7
:100510006F67676C650A563A0956657273696F6E44
:100520000A533A095374617475730A433A09416373
:1005300074697661746520436F6E736F6C65204DCE
:100540006F64650A46312D4631303A095377697434
:10055000636820746F204C6179657220302D3920DA
:1005600028463130203D204C30290A302D393A09B7
:1005700053776974636820746F204C6179657220C9
:10058000302D390A47524156453A09537769746309
:100590006820746F204C6179657220302028616C6E
:1005A0007465726E617465290A423A094A756D7004
:1005B00020746F20426F6F746C6F616465720A45BE
:1005C00053433A094A756D7020746F20426F6F74FF
:1005D0006C6F616465722028616C7465726E617401
:1005E00065290A453A095072696E74204545505292
:1005F0004F4D2053657474696E67730A4241434BD3
:1006000053504143453A09436C656172204545505A
:10061000524F4D0A4E3A094E4B524F20546F676766
:100620006C650A006B65796D61705F636F6E6669FA
:10063000672E7261773A20253032580A2E7377611F
:10064000705F636F6E74726F6C5F636170736C6FF9
:10065000636B3A2025750A2E636170736C6F636B50
:100660005F746F5F636F6E74726F6C3A2025750AEA
:100670002E737761705F6C63746C5F6C6775693A39
:100680002025750A2E737761705F7263746C5F72D8
:100690006775693A2025750A2E737761705F6C6102
:1006A0006C745F6C6775693A2025750A2E737761E3
:1006B000705F72616C745F726775693A2025750AA4
:1006C0002E6E6F5F6775693A2025750A2E73776104
:1006D000705F67726176655F6573633A2025750A9E
:1006E0002E737761705F6261636B736C6173685FB7
:1006F0006261636B73706163653A2025750A2E6EC3
:100700006B726F3A2025750A2E737761705F65737F
:10071000636170655F636170736C6F636B3A202512
:10072000750A0064656275675F636F6E6669672E40
:100730007261773A20253032580A2E656E61626CFC
:10074000653A2025750A2E6D61747269783A202504
:10075000750A2E6B6579626F6172643A2025750A9D
:100760002E6D6F7573653A2025750A006565636F98
:100770006E6669673A0A64656661756C745F6C6180
:100780007965723A2025750A003F004E4B524F3A68
:10079000206F66660A004E4B524F3A206F6E0A0079
:1007A0000A6D6F7573653A206F66660A000A6D6F91
:1007B0007573653A206F6E0A000A6B6579626F6126
:1007C00072643A206F66660A000A6B6579626F612F
:1007D00072643A206F6E0A000A6D61747269783A29
:1007E000206F66660A000A6D61747269783A206F3C
:1007F0006E0A000A64656275673A206F66660A00D1
:100800000A64656275673A206F6E0A000A0A4A75C3
:100810006D70696E6720746F20626F6F746C6F61AA
:100820006465722E2E2E2000433E2000436C6561CD
:1008300072696E6720454550524F4D0A00290A00E3
:100840002575002F002575005D2800256400200017
:10085000256400200025640020002564007C00251C
:10086000303258006D6F7573656B6579205B62740B
:100870006E7C782079207620685D287265702F6103
:10088000636C293A205B0000000000000000002A91
:100890002B28000000000000000000000000000005
:1008A000000029000000002C1E34202122243426C0
:1008B00027252E362D3738271E1F202122232425B9
:1008C000263333362E37381F0405060708090A0B6E
:1008D0000C0D0E0F101112131415161718191A1BE0
:1008E0001C1D2F3130232D350405060708090A0B7E
:1008F0000C0D0E0F101112131415161718191A1BC0
:100900001C1D2F3130354C0000000000000000009D
:1009100000000000000000000000000000000000D7
:1009200000000000000000000000007E0F00D4FF67
:10093000FFFFC7000000785B575D005B535D005B05
:10094000525D005B445D005B435D001C0376006903
:100950000061006C003A006600360034006300322B
:100960000062003300630000000E03310032006BB0
:100970000065006D00700000001603570069006CF0
:10098000006C00690061006D00200043002E000033
:10099000000403090409027B00040100A0FA090411
:1009A000000001030101000921110100012244009E
:1009B000070581030800010904010002030000008B
:1009C00009211101000122220007058203200001F4
:1009D00007050303200001090402000103000000D1
:1009E00009211101000122B600070584032000013E
:1009F0000904030002030000000921110100012283
:100A000022000705850320000107050503200001DA
:100A10001201000200000008EEEE24200100010295
:100A200003010631FF0974A1010975150026FF00B5
:100A30009520750881020976150026FF009520751E
:100A4000089102C00660FF0961A101096215002634
:100A5000FF009520750881020963150026FF0095A7
:100A60002075089102C005010902A1018502090152
:100A7000A10005091901290815002501950875012E
:100A800081020501093009311581257F950275081C
:100A9000810609381581257F950175088106050CA9
:100AA0000A38021581257F950175088106C0C005A9
:100AB000010980A101850319012AB700150126B794
:100AC00000950175108100C0050C0901A101850484
:100AD00019012AA002150126A002950175108100B6
:100AE000C005010906A1018506050719E029E715DA
:100AF0000025019508750181020507190029EF15E8
:100B000000250195F0750181020508190129059557
:100B10000575019102950175039101C00501090652
:100B2000A101050719E029E71500250195087501C0
:100B300081029501750881010507190029FF15003B
:100B400026FF00950675088100050819012905157D
:100B5000002501950575019102950175039101C06C
:100B600011241FBECFEFDAE0DEBFCDBF12E0A0E060
:100B7000B1E0E4E1FEE602C005900D92A63EB107A9
:100B8000D9F724E0A6EEB2E001C01D92A839B20761
:100B9000E1F70E94BB170C9457360C940000FF93AA
:100BA000EF93E091E602F091E702309709F00995A2
:100BB000EF91FF910895FC018591803011F0EFDFF6
:100BC000FBCF0895FF27E0E230E247FF0CC04195DC
:100BD00097FF09C0EDE26095709580959095611D35
:100BE000711D811D911D27FF02C0219530E350E248
:100BF000AA27660F771F881F991FAA1FA41710F036
:100C0000A41B63955A95A9F7AA3008F0A95FA05DC7
:100C1000AF93F395611571058105910541F7ED32AB
:100C200011F4EF93F395F21718F43F93F395FBCF7C
:100C30008F91B5DFFA95E1F70895E991F9918591E2
:100C4000803021F0853219F0AADFF9CF089520E035
:100C5000E89455915532C1F3503311F4689455918D
:100C60005A3348F4505390F3220F022E220F220FD2
:100C7000200D250FF4CF0EF42195899199915336CB
:100C800019F3533729F1533559F1BC0188279927B6
:100C9000E8945C3621F48991999168945591543681
:100CA00039F446EF7EF077FF0DC08FEF9FEF0AC05B
:100CB00055374AE039F0583540E121F0523642E0EC
:100CC00009F00895FF93EF937DDFEF91FF91B7CF88
:100CD000FF93EF93FC0181918030B9F360DFFBCF8C
:100CE000FF93EF9368DFF1CFDF93CF93CDB7DEB7FC
:100CF0002596A3DFCF91DF9108951F93CF93DF93C4
:100D0000EC01162F88818C3F61F48981823089F053
:100D10008330A9F0813029F48DEF89838A810E9484
:100D2000760C612FCE010E94C62DDF91CF911F91CD
:100D300008958DEF89838A810E947F0CF2CF8DEF19
:100D400089838A810E948B0CECCF8430B8F46330A5
:100D5000A8F4453098F4E42FF0E095E0699FE00DA9
:100D6000F11D11249FE0899FE00DF11D1124EE0F6C
:100D7000FF1FE455FF4F85919491089581E090E025
:100D800008959C019A9581159F4118F5F901EE2768
:100D9000F270832F8170B90166277470A90144270E
:100DA000587034FF0CC08295807FEF2B09F0806271
:100DB000672B09F08064452B69F080680895EF2B5C
:100DC00009F08260672B09F08460452B19F0886078
:100DD000089580E00895CF93DF93EB010E94C10650
:100DE000FE010995DF91CF910895CF93DF93EC0138
:100DF000805E9109089720F061EE7BE0209711F466
:100E000066E779E0CE010E94EB068C2F0E94D508A0
:100E1000DF91CF910895CF93DF93EC010E942209D7
:100E2000CE01805E9109089720F068EE7BE0209764
:100E300011F46DE779E0CE010E94EB06DF91CF91CE
:100E4000089581E008950E942107089581E00895A2
:100E50000E94210708950E942807089508950E947E
:100E60002E070895A6E0B0E0E8E3F7E00C948B3598
:100E700049835A839E833091ED0289819A81311191
:100E80001AC03E81332399F0222389F00E94350D48
:100E9000182F682F89819A810E94110D69817A81AA
:100EA000812F0E94D2142696E3E00C94A7350E946D
:100EB000230D182FF3CF0E94350D69817A81F1CF70
:100EC000FC01262F4081518162817381848195814B
:100ED0000E9432070895CF93DF93D82FC92F61E086
:100EE0000E9460076D2F7C2F0E942307DF91CF9116
:100EF0000895CF93DF93D82FC92F60E00E94600739
:100F00006D2F7C2F0E942F07DF91CF91089581E0F4
:100F100008950E9487070895CF93C82F0E94050C5B
:100F20008C2F0E9489072FEF84E39CE021508040A2
:100F30009040E1F700C00000CF91089581E00E9449
:100F40008C070E94572D089580E00E948C070E9414
:100F5000682D08950F931F93CF93DF93EC018B01BE
:100F60000E943A29882309F450C0B801CE010E949A
:100F7000E819882309F449C0B801CE010E942B0763
:100F8000882309F442C0B801CE010E947F21882342
:100F9000E1F1B801CE010E9449288823B1F1B801DE
:100FA000CE010E941523882381F1B801CE010E9451
:100FB0002E20882351F1B801CE010E948A2888236F
:100FC00021F1F8018581882381F0CA35FCE7DF072C
:100FD00039F178F4C130ECE7DE07F9F0C330FCE713
:100FE000DF07C9F0C115DC4771F0C8010E94260770
:100FF0000DC0CB35ECE7DE07B1F0CC35DC47A9F707
:101000000E94FF11F2CF0E949E0780E0DF91CF91F6
:101010001F910F9108950E9411120E94A407F5CF0D
:101020000E940912E2CF0E940D12DFCFCF93DF930F
:10103000D82FC92F61E00E9460076D2F7C2F0E947E
:10104000AA07DF91CF9108950E94582C0E945F0853
:1010500008950E9463080E945D2C0895829594E093
:10106000899F900111242C7C869586958373282B6B
:1010700030E0C901880F991F8A7A35952795257523
:10108000822B0895089581E008950895CF93DF930A
:10109000D82F0E944308C82F882319F08D2F0E9453
:1010A00045088C2FDF91CF9108950895CF93C82FD5
:1010B0000E9442088C2F0E944608CF91089580E03C
:1010C0000E94560808950E94942A0E945608089586
:1010D000CF930E94942AC82F8091E8028C1779F050
:1010E000C093E8020E94E72C6093E9027093EA0241
:1010F0008093EB029093EC028C2F0E945608CF91C4
:101100000895ADE0B0E0E7E8F8E00C948A35488750
:1011100059876A877B878C879D8791110E94BB10B6
:101120001F8226E0FE013896CE010196DC01019077
:101130000D922A95E1F720917E048C0122FF0CC0CC
:101140000E947B10882319F082E00E94D2110E9435
:10115000611081110E9420118D8181110DC02981A2
:101160003A814B815C816D817E818F810E94D80F95
:101170002D96E4E00C94A635C8010E946B078111FE
:10118000EECFF6CFFC018481813021F48081918102
:101190000E945E0D0895662329F00E9483240E9418
:1011A000592508950E94E124FACFCF93C82F8823B0
:1011B000C1F08CEF8C0F813AB0F48C2F0E944A1D45
:1011C00081110FC08C2F0E94372B882329F08C2F80
:1011D0000E94DC2B0E9498118C2F0E94C52B0E942C
:1011E0009811CF91089580E28C0F883048F4C77031
:1011F00081E001C0880FCA95EAF70E949C10EFCFEA
:101200008BE58C0F833038F42C2F2452330BC9011B
:101210000E94CA2AE6CFE8E5EC0FEB3150F4F0E08B
:10122000EE0FFF1FEF5DFE4F808191810E94F02A3B
:10123000D8CF83E38C0F8331A0F661E08C2F0E941E
:10124000CB08CFCF882381F19CEF980F913A28F4F7
:101250000E94DC2B0E949811089590E2980F98301C
:1012600050F4877091E001C0990F8A95EAF7892FB1
:101270000E94A210EFCF9BE5980F933028F480E0F6
:1012800090E00E94CA2A089598E5980F9B3128F4AF
:1012900080E090E00E94F02A089593E3980F933144
:1012A00018F460E00E94CB0808951F93CF93DF935A
:1012B000182FEB010E94D508209739F4812F0E9446
:1012C0002209DF91CF911F9108958FE99FE0019747
:1012D000F1F700C000002197EFCF60E070E08933A4
:1012E00011F460E570E00E9455090895882321F00B
:1012F0000E949C100E9498110895882321F00E945A
:10130000A2100E9498110895A0E0B0E0EAE8F9E088
:101310000C9486356C01D62FC72FFC010581F68011
:101320001F2D12951F700E949110E82E8823F9F04E
:10133000E02E0023E1F08C2F807F803461F080E28A
:101340008D0F8830F0F08C2F807E803221F4D230E7
:10135000C0F01123B1F080917E0482FF12C082E0C0
:101360000E94D2110E94911091E0E82EE926EC2F04
:10137000E295EF70C03CB0F5F0E0E75AF94C0C9400
:101380006F35E12CF4CF1C2F1F70C03110F0129577
:10139000107F002399F0112359F080E28D0F8830DF
:1013A00010F0D11107C0812F0E949C100E9498114B
:1013B0008D2F4FC0812F0E94AD10F8CF8D2F0E942E
:1013C0002209112379F080E28D0F883010F0D111BD
:1013D00004C0812F0E94A21003C0812F0E94B3106D
:1013E0000E949811EE2009F480C10E94771080FDC0
:1013F0007CC1F60115820E9471100E947F0CC6010B
:101400000E94BE0B0E9471100E948B0C6EC1FC2FBB
:10141000FF70FF2EC07FC03219F0F29480EFF822E7
:10142000DD2349F0D13009F44FC0002309F459C03D
:101430001123E9F0BDCF80917E0482FD14C000230A
:1014400059F0FF2029F08F2D0E949C100E949811C6
:1014500080E00E94D508C6CF80E00E942209FF20CC
:1014600009F28F2DB7CF0023C9F0111104C08F2DC1
:101470000E947609B7CF113021F48F2D0E94EF1012
:10148000B1CF153009F0AECF8F2D0E9476098F2D88
:101490000E9406118F2D0E94D110A4CF11110AC0F5
:1014A0008F2D0E947D098F2D0E9406118F2D0E9485
:1014B000DE1098CF113009F095CF0E9499108F213E
:1014C000882309F48FCFECCF002321F0163008F0E9
:1014D00089CFCDCF153008F085CF8F2D0E947D09A3
:1014E00081CF1123D1F3D93349F42FEF87EE93E065
:1014F000215080409040E1F700C000008D2F0E94F5
:10150000220970CF8C2F869586958370882369F089
:10151000813009F067CF8D2F9C2F9370011102C08D
:1015200080E090E00E94F02A5DCF8D2F9C2F937079
:10153000011102C080E090E00E94CA2A53CF602FC0
:101540008D2F0E94CB084ECF8C2F8370811134C019
:10155000011124C04D2F429546954770440F440F0A
:101560008D2F8F70042E01C0880F0A94EAF7D07176
:10157000DD2341F02FE030E001C0220F4A95EAF769
:10158000D22FD095C695C695C3708D2BC23071F001
:10159000C33079F0C13039F00E945B0C0E94942A6C
:1015A0000E9456081FCF0E94550CF8CF0E94610C74
:1015B000F5CF0E94520CF2CF002339F1C0FFEECFDD
:1015C0004D2F429546954770440F440F8D2F8F70D5
:1015D000042E01C0880F0A94EAF7D071DD2341F090
:1015E0002FE030E001C0220F4A95EAF7D22FD095C4
:1015F000C695C695C3708D2BC23069F0C33071F0AB
:10160000C13031F00E94AD0CC9CF823038F2D8CF52
:101610000E94A70CC3CF0E94B30CC0CF0E946D0CD8
:10162000BDCFCF70002339F08C2F0E947F0C8D2FFF
:101630000E947609B3CF8D2F0E947D098C2F0E94C6
:101640008B0CACCFD23F31F170F4D03FB9F0D13F29
:10165000B1F1002309F468C0112309F462C08D2F91
:101660000E94D5089BCFD33FE1F0D43F21F1011177
:10167000F3CF111167C08C2F8F71E1CF002341F0A0
:10168000153008F08BCF8C2F8F710E949B0C86CF6A
:101690001530F7CF8C2F8F710111D1CF0E947F0CA5
:1016A0007DCF002329F08C2F8F710E94760C76CF8E
:1016B0000E94720C73CF80917E0482FD06C08C2F35
:1016C0008F71002309F4BBCFE9CF0023F1F00E9412
:1016D0007710843079F40E94C8118C2F8F710E948A
:1016E0008B0C0E94942A0E945608CDB7DEB7E8E022
:1016F0000C94A2351530A8F7CF718C2F0E947F0C67
:1017000063E08C2F0E94AA11ECCF153030F00E94BC
:10171000C81164E08C2F8F71F5CF81E00E94D21147
:10172000E0CF8C2F8F71BACF112309F4A4CFD93316
:1017300049F4EFEFF7EE23E0E150F0402040E1F70D
:1017400000C000008D2F0E94220928CF0F931F9305
:10175000CF93DF93EC01688179818D810E946B0DBD
:101760008C010E94B90C0E94510CB801CE010E945C
:101770008409DF91CF911F910F910895CF93DF934B
:10178000EC018C81882399F0CE010E94160881110A
:1017900011C00E949110882351F08D81882339F067
:1017A00080917E0482FF03C082E00E94D211DF910B
:1017B000CF910895CE010E94A60BCE010E94790719
:1017C000F6CF882321F00E94AD100E949811089551
:1017D000882321F00E94B3100E949811089580E0A0
:1017E00090E00E94CA2A80E090E00E94F02A0E94C5
:1017F000BB100E9498110E94F8250E945925089557
:101800000E94F32B0E94EF0B08950E94AA100E94E1
:10181000000C0895282F92959F70963091F060F4F7
:10182000925F9F70923030F481E0203F79F030F485
:10183000283E30F080E008959A5FF3CF243FD1F73F
:10184000089581E0283EE0F3213FF9CF0895FC019F
:101850008481882339F0808191810E945E0D0E94ED
:101860000A0C089580E00895A6E0B0E0EAE3FCE009
:101870000C948C352696E2E00C94A835A7E0B0E0F5
:10188000E4E4FCE00C948C352796E2E00C94A83557
:1018900008950E94480C08950E94490C8093F50217
:1018A000089508950E944C0C08959091F502892B9B
:1018B0000E944C0C08959091F50289230E944C0CD3
:1018C00008959091F50289270E944C0C08950E947A
:1018D000480C08950E94670C08950E946A0C80933A
:1018E000F402089580E00E946D0C089591E001C01B
:1018F000990F8A95EAF7892F0E946D0C089521E0CF
:1019000030E001C0220F8A95EAF78091F402822B21
:101910000E946D0C089521E030E0A90102C0440F3F
:10192000551F8A95E2F7CA0180959091F4028923A8
:101930000E946D0C089521E030E001C0220F8A95CD
:10194000EAF78091F40282270E946D0C089590912D
:10195000F402892B0E946D0C08959091F402892362
:101960000E946D0C08959091F40289270E946D0CDD
:10197000089508959B01677091E001C0990F6A95E1
:10198000EAF763E0369527956A95E1F7B901660FA6
:10199000771F260F371FFA01E20FF31F40E050E0D8
:1019A000682F70E08191DF0111979B01042E02C026
:1019B000369527950A94E2F7217021952827292347
:1019C00028272C934F5F5F4F4330510559F70895F7
:1019D0009C01A82FA77083E0369527958A95E1F79B
:1019E000C901880F991F820F931FFB01E80FF91F90
:1019F00040E050E080E0219130E00A2E02C03695B0
:101A000027950A94E2F721703327042E01C0220F94
:101A10000A94EAF7822B4F5F5F4F4330510559F725
:101A20000895282F862F933068F4253058F4622FBC
:101A300070E025E0929F600D711D11244EEE52E082
:101A40000E94BA0C0895292F933068F4853058F419
:101A500090E06EEE72E035E0239F800D911D112421
:101A60000E94E80C089580E00895A0E0B0E0EBE368
:101A7000FDE00C9487357C010091F4028091F50221
:101A8000082BC3E0D0E010E0C8010C2E02C09595F1
:101A900087950A94E2F780FD09C02197A8F7D12C19
:101AA0008D2DCDB7DEB7E7E00C94A335DC2EB70162
:101AB0008C2F0E94ED14019781F3F2CFCF93DF9327
:101AC000D82FC92F0E94350D6D2F7C2F0E94ED1449
:101AD000DF91CF9108951F93CF93DF93162FD72FC8
:101AE0009091ED02992341F0862F972F0E945E0D71
:101AF000DF91CF911F910895882381F0862F972F32
:101B00000E94350DC82F682F812F9D2F0E94110D27
:101B1000612F7D2F8C2F0E94ED14EACF862F972FF7
:101B20000E94230DC82FF4CFE1E0F0E0DF0102C0F6
:101B3000AA0FBB1F6A95E2F7BD01DF0102C0AA0F21
:101B4000BB1F4A95E2F76A2B01C0EE0F2A95EAF710
:101B5000962F9823961302C08E2B0895E0958E231E
:101B60000895242F462F682F8091F4020E94940D2F
:101B70000E946D0C08950F931F93CF93E091F6028E
:101B8000C7E08091F7028E1304C0CF911F910F918F
:101B900008950E2F10E0CE9FF0011124E850FD4F64
:101BA00020813181428153816481758186810E94C7
:101BB0003E0CF8013196E770E4CF2091300330916C
:101BC000310340913203509133036091340370919B
:101BD0003503809136030E943E0C089580913603B0
:101BE000803178F480913503882359F0E091F60232
:101BF0002091F702309131034091300357E02E13CA
:101C000001C008956E2F70E05E9FF0011124DF0186
:101C1000A850BD4F14968C911497882361F11196AA
:101C20008C911197831327C08C91841324C015962F
:101C30008C91159781111FC012968D919C91A09146
:101C40003203B09133038A1B9B0B883C910598F4B7
:101C5000809136038F70806180933603E250FD4F90
:101C600080818F708061808380E393E00E94BE0B4F
:101C70000E94BB0D0895FB013196E770C0CFE09143
:101C8000F6029091F70227E0E91302C080E0089580
:101C9000AE2FB0E02E9FF0011124E850FD4F3181AE
:101CA000361306C03081381303C03581341304C0A5
:101CB000FD013196E770E8CF81E008958F929F9201
:101CC000AF92BF92DF92EF92FF920F931F93CF9349
:101CD000DF93CDB7DEB72D970FB6F894DEBF0FBEFA
:101CE000CDBF8C0186E0F801DE01189601900D92BF
:101CF0008A95E1F7F801E080F580A280B3808481C5
:101D000090E3892E93E0992E9091340391111BC09A
:101D1000882309F4FCC0FF2009F43DC1C8010E94DA
:101D2000270C882309F437C187E0F801D40101901A
:101D30000D928A95E1F7C4010E94C2080E94EE0D3F
:101D40000E94DD0DE4C0D090350320913203309124
:101D50003303A501421B530BDD2009F4DBC0483CD3
:101D6000510508F0A6C0882309F4D1C09091310331
:101D7000918080913603803108F06BC0991228C0A1
:101D8000909130039E1124C0F1105DC08F7080616E
:101D9000809336030E94DD0D80E393E00E94BE0B2A
:101DA00080913603F8018683F12C8F2D2D960FB686
:101DB000F894DEBF0FBECDBFDF91CF911F910F9181
:101DC000FF90EF90DF90BF90AF909F908F9008951D
:101DD000F11039C040E0692D8E2D0E943F0E40E089
:101DE000692D8E2D0E943F0EF82E8111DDCF888542
:101DF00099850E945E0D292F22952F70903450F402
:101E00009F70223080F0992399F0F80196819031EB
:101E100078F4CBCF2A5F2F70223078F0C8010E946F
:101E2000BE0BFD2CC2CF992319F0882309F4BDCF36
:101E3000805E883008F4B9CFF1CF803F08F4B5CF89
:101E4000815F8230F7CF80913603816080933603C3
:101E5000ABCF991207C0909130039E1103C0FF20B1
:101E600009F479C0C8010E94270C882309F493C0A3
:101E7000FF2009F490C080913603803288F02091D1
:101E80003003309131033A832983BC82AB82909135
:101E900034039D831E828F83CE0101960E94BE0B68
:101EA00087E0F801A0E3B3E001900D928A95E1F795
:101EB00045CF909136039031A0F4488559856A85C5
:101EC0007B858C859D850E94340C80E393E00E9485
:101ED000BE0B87E0F40111928A95E9F70E94DD0DAF
:101EE00063CF8823A1F02091310381812813BACFD9
:101EF000809130038E11B6CFF110B4CF9683C80114
:101F00000E94BE0B87E0F40111928A95E9F7FF2445
:101F1000F3944BCF483C510508F041C08823B9F3F6
:101F2000FF20C9F190913103818198132AC08091DB
:101F300030038E1126C08091360380FD19C0803198
:101F4000B8F08683807F803F39F08681982F907F1C
:101F5000905F8F70892B8683C8010E94BE0B87E03B
:101F6000F801A0E3B3E001900D928A95E1F7E8CE85
:101F700087E0F801A0E3B3E001900D928A95E1F7C4
:101F8000C6CFC8010E94270C81118ACF80913603E9
:101F9000816080933603C8010E94BE0BB8CF48858C
:101FA00059856A857B858C859D850E94340C91CFEF
:101FB000AEE0B0E0EEEDFFE00C948B35288739877A
:101FC0004A875B876C877D878E87CE0108960E9443
:101FD0005E0E8823B1F06C85662341F02885398533
:101FE0004A855B857D858E850E943E0C17E0809139
:101FF000F6029091F70289133EC02E96E3E00C940E
:10200000A73587E0FE013896DE01119601900D920A
:102010008A95E1F72091F7024091F6028C8588239A
:1020200029F330E0C90101968770992750E08417A1
:10203000950799F097E0929FD001939FB00D1124DE
:10204000A850BD4FFE01319601900D929A95E1F78F
:102050008093F7020E94BB0DC9CF0E94050C10921D
:10206000F7021092F60287E0E0E3F3E0DF011D9251
:102070008A95E9F7BBCF189FC001112488509D4F66
:102080000E945E0E882309F4B8CFE091F6021E9FED
:10209000F0011124E850FD4F2081318142815381AC
:1020A0006481758186810E943E0C8091F60290E0E9
:1020B0000196877099278093F60299CF80916403E7
:1020C00008950E94DB2C2091620330916303AC01E0
:1020D000421B530B9A0181E02838334108F480E019
:1020E00008958091610386958695869508958091DF
:1020F0006103877008950E94DB2C20915F0330916B
:102100006003821B930B8838934148F080916103F0
:1021100082FB882780F991E089278170089580E00B
:10212000FCCF90916103977081E0911101C080E034
:10213000089580919103089590919103982B909325
:1021400091030895982F909580919103892380930E
:102150009103089510929103089590919003982B04
:10216000909390030895982F9095809190038923E0
:1021700080939003089510929003089580938F03A5
:10218000089510928F03089580938E0308951092FE
:102190008E03089580916503089508950E94CD10DF
:1021A0000895982F80916403282F2923291729F057
:1021B000892B809364030E94CE100895909164034C
:1021C000292F2823222331F08095892380936403CB
:1021D0000E94CE10089508950E94EB100895CF93A9
:1021E000C82F809165038C238C1771F00E94DB2C23
:1021F0009093630380936203809165038C2B80939B
:1022000065038C2F0E94EC10CF9108959091650387
:10221000292F2823222381F0809589238093650329
:10222000882359F00E94DB2C809362039093630310
:10223000809165030E94EC10089580E090E0F4CF57
:1022400080916503882349F010926503109263031F
:102250001092620380E00E94EC100895CF93DF9308
:10226000C091910380919003C82B809165038823CE
:1022700069F00E94611081110E942011D0916503C4
:102280000E94162B81110E942011CD2B80918E036C
:1022900080958C2390918F03892BDF91CF910895A6
:1022A000CF93DF93C0910201D09103010E942E11C0
:1022B0008883C0910201D091030148E050E067E5B6
:1022C00073E0CE010E94D035892B59F088E0FE01E1
:1022D000A7E5B3E001900D928A95E1F7CE010E9447
:1022E000A12ADF91CF910895CF93DF93C091000190
:1022F000D09101010E942E118983C0910001D091DB
:10230000010140E250E067E373E0CE010E94D03566
:10231000892B59F080E2FE01A7E3B3E001900D9212
:102320008A95E1F7CE010E94AC2ADF91CF91089502
:1023300080911C01882339F080917D0487FF03C0C0
:102340000E94741108950E945011089508950E94EA
:10235000A611089590917E0492FF17C098E0899F7E
:1023600090011124622B609361030E947F0C0E94F4
:10237000DB2C9093600380935F03809161038695CB
:10238000869586950E94A71108950E947F0C089556
:10239000109261031092600310925F0380E00E942C
:1023A000A71108959091610380958923809361031B
:1023B000282F277021110DC0891759F090917E04A4
:1023C00092FF07C08695869586950E948B0C0E9489
:1023D000C811089590917E0492FB222720F92817B6
:1023E00069F080FB92F990937E0480917D04909136
:1023F0007E040E94331282E00E94D21108958091DF
:102400007E0482FB882780F991E089270E94EA11E7
:10241000089581E00E94EA11089580E00E94EA1187
:1024200008956FEF7FEF80E090E00E9439360895C5
:1024300080E090E00E940536863E9E4F19F40E948F
:10244000C528089580E0089582E090E00E94FD355F
:10245000089583E090E00E94FD35089584E090E0C7
:102460000E9405360895BC0184E090E00E94393650
:102470000895AB01BC018FE090E00E942D360895D5
:10248000AB01BC0183E190E00E942D36089560E02D
:1024900070E0CB010E944012089560E070E0CB0133
:1024A0000E9439120E9447120895A8E0B0E0EBE5BF
:1024B000F2E10C948C3566EE7EEF80E090E00E94B5
:1024C000393660E082E090E00E941B3681E0809324
:1024D000F50261E083E090E00E941B3660E074E169
:1024E00084E090E00E94393660E086E090E00E944F
:1024F0001B366FEF87E090E00E941B3640E050E013
:10250000BA0188E090E00E942D3660E084E290E01D
:102510000E941B3660E087E190E00E941B3660E07D
:102520008CE090E00E941B3660E08DE090E00E941D
:102530001B3619821A821B821C821D821E821F82F8
:10254000188648E050E068E170E0CE0101960E94F4
:102550000B3640E050E0BA0180E290E00E942D3658
:1025600080E00E94DE280E941D290E944D122896BC
:10257000E2E00C94A8350E9455120895682F8EE071
:1025800090E00E941B360895A6E0B0E0EAECF2E18C
:102590000C948A350E94DB2C8C01809192039091DF
:1025A00093038017910779F019821A820E94DB2C1D
:1025B000BC0149815A8180E090E00E94810810931B
:1025C0009303009392032696E4E00C94A6350E94B0
:1025D000E72C60939F037093A0038093A1039093D3
:1025E000A20360939B0370939C0380939D0390933D
:1025F0009E0308950E94E72C60939F037093A003AD
:102600008093A1039093A203609397037093980320
:102610008093990390939A030895089508950E94D2
:102620000D13089508950E94121308958AE29FE2FF
:102630000E94C8170E944E180E940E130E940F138A
:10264000089581E008950E94211308950E942113A6
:102650000895089508950E9429130E942A13089549
:102660000E94FF150E94550808950E94D22C0E94D6
:102670002D290E94071A0E9419170E9430130E94E8
:1026800013130895A6E0B0E0E8E4F3E10C94833579
:102690000E942313811111C00E94C4120E94342190
:1026A0000E94281A81110E94FA120E9419260E9483
:1026B00068082696EBE00C949F350E942F17109126
:1026C000940380E00E94361681130EC0109195038A
:1026D00081E00E943616181307C01091960382E01D
:1026E0000E9436161817C1F28091A30381FD0E9443
:1026F0003C160E942613C82E84E9A82E83E0B82E2B
:1027000000E099249394802F0E943616182FF5012B
:1027100091915F01891739F1D82ED926F12CEE2439
:10272000E3948E2D8D218823B1F0CC20A1F0F98285
:102730000A830E94DB2C9C838B839D8291E08E2DEB
:102740008123811101C090E049815A816B817C8194
:102750008D810E948108F394EE0CF5E0FF12E1CF29
:10276000F501319710830F5F033069F60E94E7127D
:1027700095CF1F93CF93DF930E94F214EC01811544
:1027800022E5920708F053C0811540E5940708F050
:10279000DDC0803E9105F8F48D3C910508F0AEC097
:1027A000883A910580F4853A910508F099C0813006
:1027B000910521F00497813A910550F4CE01DF9103
:1027C000CF911F910895885A91094B9708F48BC0B7
:1027D000C0E0D0E0F3CF811550E49507F8F4C115BF
:1027E00080E2D80708F0CBC0C83ED10538F3CE014F
:1027F0009A9581159F4160F78D2F0E949615182F8D
:10280000CE0199270E94F214212F30E0322F222787
:10281000E901CC27DF71C82BD92BD0CF99270E9493
:10282000F214CC27DF70C82BD92BD06AC7CF8038E1
:1028300042E59407C8F5803652E5950708F067C071
:10284000C03482E5D807B0F08C2F869586958770C6
:1028500020E2829FC0011124C37021E030E0A90171
:1028600002C0440F551FCA95E2F7EA01C82BD92BC5
:10287000DC68A4CFC03252E5D50708F041C08C2FE8
:102880008695869520E2829FC0011124C37021E0C5
:1028900030E0A90102C0440F551FCA95E2F7EA01D2
:1028A000C82BD92BDD688ACF803C52E5950760F4B0
:1028B0008F71C03AD24508F03FC090E0982F88272A
:1028C000EC01C46FD06A7ACF805C9245809708F0A3
:1028D0007FCFDC2FCC27CC27DF71C06FD06A6ECFC3
:1028E000A497D0646BCFC85AD0E0CC0FDD1FC95A73
:1028F000DE4F0990D881C02DD46460CFD0655ECF03
:10290000CF71D0E0DC2FCC27C16FD06A57CF86952E
:102910008695877020E2829FC0011124C37021E058
:1029200030E0A90102C0440F551FCA95E2F7EA0141
:10293000C82BD92BDA6842CF0E949615C82FD0E059
:10294000DC2FCC27CC27DF71D06238CF8F710E946B
:10295000961565E0D695C7956A95E1F7CF70D0E0FA
:10296000DC2FCC27282F30E084FF05C054E0220F55
:10297000331F5A95E1F7C22BD32BD0691FCF8D2F70
:102980008F710E949615182FCE0199270E94F2147C
:10299000212F30E0322F222722273F71282B392B7D
:1029A000E901D2CF462F672F2091360430913704AA
:1029B000232B81F4703F39F4403F61F4809185040A
:1029C000909186040895733028F4453018F40E94DD
:1029D0000D1F089580E090E008950E94D2140E9497
:1029E000B9130895803E9105D1F1C8F48133910562
:1029F00009F47FC048F48932910509F46FC08A3226
:102A0000910509F47DC0089589339105E1F082387C
:102A10009105C9F08533910509F45BC00895843EA2
:102A20009105D1F148F4823E910531F1833E910543
:102A300041F181EE90E00895863E9105C1F1873E17
:102A40009105E1F1089520917D042370211165C065
:102A500020917E0423FF14C089E290E00895209124
:102A60007D0420FD43C030917E0430FF09C024FF67
:102A70004EC080E090E0089520917D0422FDF7CFC4
:102A8000089520917D0422FD45C030917E0430FDE3
:102A900044C024FFF5CFEDCF20917E0421FFF0CF7D
:102AA00080917D0484FDE5CF87EE90E0089520912C
:102AB0007D0423FFE5CF24FDDCCFF6CF20917D04FC
:102AC00023FD2EC030917E0431FFE3CF84EE90E0F1
:102AD000089520917D0425FFD3CFBECF20917D04A2
:102AE00025FD21C020917E0423FFCACF89E390E019
:102AF000089520917D0426FFC3CF8AE290E00895D7
:102B000020917D0426FFBCCF81E390E0089583EE01
:102B100090E0089582EE90E0089580EE90E00895B0
:102B200086EE90E0089585E390E0AACF90917D0431
:102B300092FF10C041E0282F2471243009F040E0BA
:102B400031E0282F2871283009F030E0431711F0C8
:102B50002CE0822793FF10C041E0282F24712431FC
:102B600009F040E031E0282F2871283109F030E0E9
:102B7000431711F02CE0822730917E0430FF10C003
:102B800051E0282F2171213009F050E041E0282F39
:102B90002871283009F040E0541711F029E082270D
:102BA00031FF10C041E0282F2171213109F040E0B0
:102BB00031E0282F2871283109F030E0431711F057
:102BC00029E0822794FD877E08950E9411120895BE
:102BD0000E942F178FE39CE90197F1F700C00000D6
:102BE0000E942F1780E00E94361680FF04C00E94CA
:102BF000E5150E94572D08950E94E81508950E943A
:102C00001812811102C00E94BB120E9424128093EC
:102C1000A3030E942E1290937E0480937D040E9451
:102C2000FC150E9429120E94520C8091F4020E940D
:102C30006A0C089508950E941A16089508950E9436
:102C40001E160895E82FF0E0EE57FB4F808190E0CC
:102C500021E030E002C0220F331F6A95E2F72823FB
:102C6000392381E0232B09F480E00895E82FF0E078
:102C7000EE57FB4F80810895A0E0B0E0E2E4F6E17A
:102C80000C94863583E391E00E94DB0582E8E82E10
:102C900084E0F82EC0E0D0E09EE2C92E91E0D92E6B
:102CA00006E211E0DF93CF93DF92CF920E94740689
:102CB0008BE291E00E94DB05F70181917F010E9488
:102CC0002E081F928F931F930F930E94740684E225
:102CD00091E00E94DB0521968DB79EB708960FB64E
:102CE000F8949EBF0FBE8DBFC330D105D9F6CDB7C6
:102CF000DEB7E8E00C94A23580EA8A95F1F70895F2
:102D000000C008950E947C160895F894E82FE2957B
:102D1000EF70F0E041A18F7021E030E0B90102C016
:102D2000660F771F8A95E2F7CB01962F9095942333
:102D300091A392A1892B82A3789408950F931F9356
:102D4000CF93DF9386EC0E94851684E30E9485165C
:102D500085E30E948516CDE8D1E002E911E0899172
:102D60008F3F11F00E9485160C171D07C1F7DF91E8
:102D7000CF911F910F910895A0E0B0E0E2ECF6E151
:102D80000C948635EC01D62E062F10E0C8018E5625
:102D90009E4F7C01FC0180818F3F09F445C0F8946F
:102DA000E82FE295EF70F0E091A18F7021E030E024
:102DB00001C0220F8A95EAF7892F822B81A382A175
:102DC0002095282322A378940E948016EDE8F1E054
:102DD00091E0C12C81918F3F81F0A82FA295AF7017
:102DE000A05EB0E02C9130E08F7002C03595279541
:102DF0008A95E2F72170892F211180E0C82A990F66
:102E000081E0E239F80731F7F70180818F3F11F057
:102E10000E94851661E0C11001C060E08D2D0E9406
:102E20008216C00FD11FC882CDB7DEB7E8E00C9480
:102E3000A2350E949E1683E0E2E8F4E0DF01982FBD
:102E40001D929A95E9F7EFE7F4E0DF011D928A956C
:102E5000E9F783E00E946D170E941B160895A3E016
:102E6000B0E0E5E3F7E10C948B351A8219821B82FE
:102E700060E0CE0101960E94BC1661E0CE01019691
:102E80000E94BC1662E0CE0101960E94BC1643E08F
:102E900050E0BE016F5F7F4F8FE794E00E94D03516
:102EA00021E0892B81F420E043E062E874E08FE7C1
:102EB00094E00E946E17182F0E941F16812F2396F0
:102EC000E3E00C94A73589819A81AB8180937F04DC
:102ED00090938004A0938104E7CF0895A0E0B0E030
:102EE000E4E7F7E10C948635D82EE92EF62ED72F9D
:102EF000042FC22F222379F081E08093A6030E9441
:102F0000DB2C9093A5038093A40380E0CDB7DEB7BC
:102F1000E8E00C94A235C090A603CC20B1F38091D8
:102F2000A4039091A5030E94042D059770F310E06F
:102F3000A8016D2D7E2D8F2D9D2F0E94D035892BC0
:102F400041F0A8016D2D7E2D8F2D9D2F0E94DD3526
:102F5000CC2D1092A6038C2FD9CF0E94A62F0E94B1
:102F600035130E94B32F08950E94B82F0E94421378
:102F70000E94D22F08950E94742C0E948C2F0E94D0
:102F800016130E94AD170E94B4170E942B13FBCF9B
:102F90009093E7028093E6020895AAE0B0E0E3EDA3
:102FA000F7E10C94833509EB13E087EAC82E83E040
:102FB000D82EF12C97E0E92E9924939421E3A22EA8
:102FC00024E0B22ED6010D931D936D01BE016F5FFB
:102FD0007F4F8F2D0E94EF1D892B09F055C0F801FE
:102FE0003896DF018E2D1D928A95E9F789819A81A5
:102FF000D80111969C938E938F8112968C93129781
:103000008D8113968C931397888514968C931497BF
:10301000898515968C9315978B819C8117969C9327
:103020008E9316978A8587FD04C01E96BC92AE9239
:103030001D9780FF02C0F801908681FF07C0D8016C
:1030400018969C911897926018969C9382FF04C0E2
:10305000F80190859460908783FF07C0D801189687
:103060009C911897986018969C9384FF04C0F8016F
:1030700090859061908785FF07C0D80118968C9144
:103080001897806218968C93015F1F4FF394B8E0F5
:10309000FB1298CF2A96EBE00C949F350E94CD1737
:1030A0000895AAE0B0E0E7E5F8E10C9487358C01DB
:1030B000603239F5DC011196EC911197EE3008F58C
:1030C000F0E0EB59F94C0C946F3588E0E5E9F1E05C
:1030D000DE01119601900D928A95E1F7F801319683
:1030E0008FE1DF011D928A95E9F786E0F801808380
:1030F00088E0FE013196D801149601900D928A95D0
:10310000E1F72A96E7E00C94A33580EE8C931196B4
:103110001C92119712961C92129713961C92F1CF43
:10312000FC0182819381092E000CAA0BBB0B25E0C8
:10313000880F991FAA1FBB1F2A95D1F7AC01BD01AB
:10314000405E5F4F6F4F7F4F803EFFEF9F07AF079F
:10315000BF07B8F6803E9105A105B10590F6413E46
:1031600051056105710520F040EE50E060E070E02F
:10317000481B590BBC016E5B7E4FC8010E94C735CE
:10318000C0CF4FE150E06FEF70E001960E94E6354E
:1031900080913804D8018C938091360411968C93D9
:1031A000119712961C92129713961C92139781E016
:1031B00014968C93149782E015968C93A2CF81E09D
:1031C00090E0909337048093360482E390E09093EC
:1031D0003504809334040E94DB2C90933304809355
:1031E00032048FCF8091360490913704892B91F16E
:1031F00060E080E00E942216E82E62E081E00E94FA
:103200002216F82E80913204909133040E94042DEE
:103210008536910550F1EE2041F1FF2031F10E94F9
:10322000DB2C90933304809332048091340490918A
:10323000350401979093350480933404892B51F41D
:10324000109237041092360481E090E09093390494
:103250008093380480913804F8018083809136048B
:1032600081838091340482834CCF82E390E09093F9
:10327000350480933404EECF109239041092380450
:1032800040CF40E250E06FEF70E00E94E63539CF6A
:1032900012968C911297853069F0863019F1811160
:1032A00030CF80E2F80111928A95E9F788E0129612
:1032B0008C9327CFF80183819AE0D92E9E012F5F4E
:1032C0003F4F7901D901ED2D1D92EA95E9F7B9013A
:1032D0000E94EF1DD8018D93F70101900D92DA94B1
:1032E000E1F70FCF13968C919AE0F8013496AE0176
:1032F0004F5F5F4FDA0101900D929A95E1F72B81B4
:103300003C81BA012115BCE73B0741F440913804E8
:1033100050913904452B11F420E030E03C832B839D
:103320000E94041EF80180830E94CD17EACEA6E019
:10333000B0E0EDE9F9E10C948C359093860480932C
:103340008504811520E2920730F40E94F506269646
:10335000E2E00C94A83580EF89838A830E94DB2CFD
:103360008160BC0149815A8181E091E00E9481081D
:10337000EECFA6E0B0E0EFEBF9E10C948C35909342
:10338000860480938504811520E2920730F40E9420
:103390000B072696E2E00C94A83580EF89838A8398
:1033A0000E94DB2C8160BC0149815A8181E090E060
:1033B0000E948108EECFCF93DF93D82FC92F0E94B0
:1033C00097198D2F9C2F0E94B919DF91CF910895E5
:1033D00081E008958FE891E00197F1F700C00000C7
:1033E000089581E00895CF93DF93D62F0E94F119BD
:1033F000C82F882341F06AE070E089EAD11101C04A
:103400008AEA0E9455098C2FDF91CF91089581E0BF
:1034100080933B043E98469A57985F9A0E94EA1917
:1034200030913B044DE354E0FA018E2F841B831747
:1034300008F0089526B189B190E0880F892F881F80
:10344000990B880F26FB992790F9892B8193EDCF53
:10345000A0E0B0E0EEE2FAE10C948635F12CE12C2C
:1034600044E0C42ED12C80913B04F81630F08E2D10
:10347000CDB7DEB7E8E00C94A2350F2D10E026B1F1
:1034800089B190E0880F892F881F990B880F26FB40
:10349000992790F9892BD801A35CBB4FEC919E2F03
:1034A00093709817A1F1EE0FEE0FE82BEC93EF70ED
:1034B000F0E0EF53FD4FE801C45CDB4F8081988161
:1034C000890F888320E084305CF0F801E65CFB4FD4
:1034D00080818F5F808360E08F2D0E94F31921E04F
:1034E00088818D3F5CF4F801E65CFB4F8081815060
:1034F000808361E08F2D0E94F31921E08881082EDE
:10350000000C990BB6010E945B358883E22AF39484
:10351000AACF809107011F928F93809108011F927B
:103520008F9380910B011F928F9380910C011F92BA
:103530008F9380910D011F928F9380910E011F92A6
:103540008F9382E292E09F938F930E9474068DB7CF
:103550009EB70E960FB6F8949EBF0FBE8DBF08950E
:10356000CF93C82F1F928F938CEB93E09F938F93F1
:103570000E94740681E001C0880FCA95EAF70E9494
:10358000520C0E94050C0F900F900F900F90CF914E
:103590000895893209F47BC010F5833109F48BC09A
:1035A00040F4873009F4E1C08B30D9F181E893E031
:1035B000F0C0843109F46BC092EE980F9A30B0F7E6
:1035C0008D5180934204843009F07CC08BE091E0FF
:1035D000909341048093400484EC91E081C0803555
:1035E00009F4DAC0B8F48833E1F09AE08F34F1F6E8
:1035F000E0914004F0914104309709F4E9C08081E2
:10360000890F9927991F8F3F910511F00CF08FEFCB
:103610008083CEC0813509F4D1C091E0823541F379
:10362000C5CF86EA93E00E94DB050E94891A1F92AB
:1036300081E08F931F9288E08F938FE992E09F93B0
:103640008F930E9474060F900F900F900F900F9021
:103650000F9020914204222309F4BDC080913E04C2
:1036600090913F04009711F48EE991E09F938F931E
:103670001F922F938FE693E09F938F930E9474067F
:103680000F900F900F900F900F900F90089583EA76
:1036900093E00E94DB0580914204882309F49FC0D7
:1036A00010924204109241041092400410923F0480
:1036B00010923E04CECF85E993E00E94DB050E9484
:1036C000891AC7CF853010F5823059F1833091F1D6
:1036D0008EE091E0909341048093400482EA91E06F
:1036E00090933F0480933E0480914204882309F420
:1036F000B0CF1F928F938EE893E09F938F930E9499
:1037000074060F900F900F900F90A3CF8530D9F0D3
:10371000863011F11092420482E993E00E94DB05A9
:10372000E3CF8DE091E090934104809340048BEAD5
:1037300091E0D6CF8CE091E09093410480934004D7
:1037400087EB91E0CDCF88E091E0909341048093A6
:10375000400483ED91E0C4CF87E091E09093410471
:103760008093400486EE91E0BBCF81E080930E0110
:1037700084E180930D018AE080930C018EE18093B7
:103780000B0188E08093080188E28093070184E8B8
:1037900093E00E94DB055DCFE0914004F09141048D
:1037A0003097B1F080818A50990B97FF31CF10820A
:1037B00080811F928F938BE793E09FCFE09140042D
:1037C000F0914104309721F080818150990BEDCF29
:1037D00088E793E0DECF8BE693E00E94DB05089557
:1037E000A0E0B0E0E6EFFBE10C948735EBEFE80FEB
:1037F000EF3308F044C1F0E0ED58F94C0C946F350C
:103800000E9429121F928F938CE697E09F938F93CB
:103810000E9474060E94241283FB992790F91F923C
:103820009F9382FB992790F91F929F9381FB992781
:1038300090F91F929F93982F91701F929F931F92C0
:103840008F9383E297E09F938F930E9474060E9468
:103850002E1293FB222720F91F922F9387FB2227FA
:1038600020F91F922F9386FB222720F91F922F9376
:1038700085FB222720F91F922F9384FB222720F912
:103880001F922F9383FB222720F91F922F9382FBF5
:10389000222720F91F922F9391FB222720F91F92B4
:1038A0002F93292F21701F922F9381FB222720F91C
:1038B0001F922F93282F21701F922F939F938F93E6
:1038C00084E296E09F938F930E9474068DB79EB713
:1038D0008A960FB6F8949EBF0FBE8DBF81E0CDB71C
:1038E000DEB7E7E00C94A3358CE298E00E94DB059C
:1038F0000E94BB12F3CF8FE694E00E94DB05EECF6F
:103900008091A303807F8093A30388E494E00E94C6
:10391000DB0588E298E00E94DB0581E080934304A8
:10392000DDCF8CE098E00E94DB0580913804909117
:103930003904892B99F20E949E07D0CF9091A3035E
:10394000892F8E7F90FF81608093A30380FF03C047
:1039500080E098E0D2CF83EF97E00E94DB05809172
:10396000A303817F8093A303B9CF9091A303892FF1
:103970008D7F91FF82608093A30381FF08C086EE54
:1039800097E00E94DB058091A3038160EBCF88ED77
:1039900097E0B3CF9091A303892F8B7F92FF846030
:1039A0008093A30382FF03C089EC97E0EACF89EB01
:1039B00097E0A3CF9091A303892F877F93FF88601F
:1039C0008093A30383FF03C08DEA97E0DACF80EAF8
:1039D00097E093CF8BEF91E09F938F9385E494E0F2
:1039E0009F938F930E9474060F900F900F900F90EB
:1039F00075CF0E94E72CD62F172F082FF92EC091D4
:103A00007D04C7FBCC27C0F9D0907C04E0901C015A
:103A10000E94942AFF920F931F93DF931F92CF93DC
:103A20001F92DF921F92EF921F928F9381EC93E08F
:103A30009F938F930E9474068DB79EB70E960FB614
:103A4000F8949EBF0FBE8DBF49CF0E94050C909188
:103A50007D04892F97FB87F9805880937D0487FF29
:103A600003C086E997E049CF8BE897E046CF80E036
:103A70000E94B01A33CF8953FBCF8D51F9CF89E81B
:103A800097E00E94DB0580E02ACF80E008950E9445
:103A9000451D0895CF93C82F809143048130A9F02C
:103AA000823009F443C0811146C00E9499108232CD
:103AB00009F043C08C2F0E94451D81111BC08C2F23
:103AC0000E94F01B8170CF9108950E94991082325C
:103AD00089F38C2F0E94471D81111BC0C431D9F07E
:103AE00060F4CB3071F0C031D1F086EB93E00E94EE
:103AF000DB0513C081E090E0E5CFC93261F0C83347
:103B0000A1F788E494E00E94DB0588EB93E00E9433
:103B1000DB0581E0D7CF1092430480E0D3CF82E071
:103B20008093430488E30E94C91AF3CF8C2F0E942C
:103B3000C91A81E0C8CF1092430480E0C4CF84E06A
:103B4000089550E0440F551F9AE0699F400D511DA4
:103B500011249EE1899F400D511D1124CA018996AF
:103B600008950F931F93CF93DF938430C8F463308D
:103B7000B8F44530A8F40E94A11D8C010E94FD35C7
:103B8000C82FD0E0DC2FCC27C80101960E94FD355C
:103B90009E01282BC901DF91CF911F910F910895AC
:103BA00080E090E0F8CF0F931F93CF93DF93122F15
:103BB000032F843078F4633068F4453058F40E9461
:103BC000A11DEC01602F0E941B36612FCE010196D2
:103BD0000E941B36DF91CF911F910F910895282FDE
:103BE000CB01283070F44AE0249F90011124B901E0
:103BF0006F547F4F4AE050E00E94ED3580E090E046
:103C000008958FEF9FEF0895282FCB01283070F48F
:103C10004AE0249F90011124B9016F547F4F4AE07C
:103C200050E00E943F3680E090E008958FEF9FEFD4
:103C30000895CF92DF92FF920F931F93CF93DF935C
:103C4000CDB7DEB72A970FB6F894DEBF0FBECDBF53
:103C5000C0903804D090390481E090E0909339040A
:103C60008093380400E010E012C04F2D612F802FA8
:103C70000E94A5069C014F2D612F802F0E94D31D0D
:103C8000F39485E0F812F1CF1F5F133011F0F12C9F
:103C9000ECCF0F5F043039F7FE01319689E0DF0188
:103CA0001D928A95E9F78FEF9FEF9E838D8387E0C2
:103CB0008A8710E0FE2E0F2F6F2D702F812F0E940C
:103CC000041E1F5F1830C1F7D0923904C092380427
:103CD0002A960FB6F894DEBF0FBECDBFDF91CF910D
:103CE0001F910F91FF90DF90CF900895EF92FF9278
:103CF0000F931F93CF93DF938C01EA017A01E60EB5
:103D0000F71ECE15DF0529F4CDB7DEB7E6E00C943B
:103D1000A43580E00837110520F4C80189960E9477
:103D2000FD3589930F5F1F4FECCFA0E0B0E0EBE9CA
:103D3000FEE10C948035EC017B018A018837910506
:103D400098F488E790E08C1B9D0B8617970760F02E
:103D50008091380490913904892B59F0E00EF11EBE
:103D60000E151F0509F04CC0CDB7DEB7EEE00C9480
:103D70009C353E0129E2620E711C6E0131E0C322C6
:103D8000DD24C114D10479F0CE0188960E94FD355E
:103D9000F801908189279827892781159C4719F474
:103DA0008FEFF8018083CE018E0D9F1D570180FF9C
:103DB00013C0F1E0AF1AB10848018A0C9B1CC30183
:103DC0008E0D9F1D0E94FD35F401908181159C4749
:103DD00019F48FEFF4018083F801EC0DFD1D2FEF36
:103DE000CA14DB0408F0BACF9081818181159C4709
:103DF00011F42083218382E0C80ED11C3296F0CFCB
:103E0000C837D10530F4F8016081CE0189960E944F
:103E10001B360F5F1F4F2196A3CF843038F46330D9
:103E200028F4453018F40E94B11D089580E090E018
:103E3000089580E108958FEF92E00895EF92FF9248
:103E40000F931F93CF93DF938C01EA017A01E60E63
:103E5000F71ECE15DF0529F4CDB7DEB7E6E00C94EA
:103E6000A4350F3F82E0180748F4C8018F5F9E4FCA
:103E70000E94FD3589930F5F1F4FEBCF80E0FACF93
:103E8000EF92FF920F931F93CF93DF938C01EA0180
:103E90007A01E60EF71ECE15DF0529F4CDB7DEB7A1
:103EA000E6E00C94A4350F3F82E0180730F46881F7
:103EB000C8018F5F9E4F0E941B3621960F5F1F4FD8
:103EC000EACFCF93DF93C1E0D1E060E0CE010E9462
:103ED0001B362196C11584E0D807B9F7DF91CF9141
:103EE0000895A4E0B0E0E7E7FFE10C948635F82EF2
:103EF0002FE0281708F4AEC08FEF93E00E94FD3545
:103F00008111A8C001E011E0F1103CC080911D01B9
:103F100090911E01A0911F01B091200189839A8385
:103F2000AB83BC8378018FEFE81AF80AC8010E94BE
:103F3000FD3589831A82882309F48CC0813009F009
:103F400082C0680192E0C90ED11CC7010E94FD35F4
:103F5000E82E8A83882309F47DC0C6010E94FD35BE
:103F6000F82E8FEF8E0D8330D8F4FB82FF2021F0E6
:103F7000CE0101960E94D627680153E0C50ED11CE0
:103F80008601D0CF011544E0140709F463C0C801CD
:103F90000E94FD350F5F1F4F8111F4CFFA94B4CF0B
:103FA0008BEF8E0D833040F5680123E0C20ED11CEB
:103FB000FB82FF2029F3C6010E94FD358C838823F4
:103FC00081F08B819C8181304FEF940710F0982F06
:103FD000882756E0E51651F027E0E21651F00E94DE
:103FE000DB19680144E0C40ED11CCACF0E949719A6
:103FF000F8CF0E94B919F5CF54E0E512C1CF68019E
:1040000084E0C80ED11CC80103960E94FD35FF2034
:1040100009F18823F9F08150990B4FEF489F9001E7
:10402000499F300D11244F2D4150550B240F351F42
:104030002150310908F4A4CF8FE99FE00197F1F7EF
:1040400000C00000F5CF60E0CE0101960E946F270E
:10405000670196CF2496E8E00C94A235CF93DF93C6
:10406000EB0186319C4719F50E9499109D81992397
:10407000A1F08A7A91E0811101C090E0909344040C
:10408000882349F085E30E94C52B0E94981180E0A7
:10409000DF91CF91089589E2F6CF8091440488237F
:1040A00021F085E30E94DC2BF0CF89E2FBCF81E099
:1040B000EFCFFC018481862381110AC0828188238D
:1040C000B9F06823908593FF05C081E061110FC0AE
:1040D00080E00895282F22952F708F70282B962F1F
:1040E00092959F706F70962B81E02913F1CF089500
:1040F00081E0FDCFA6E0B0E0E0E8F0E20C948A3584
:104100008E839D8380914F0490915004A09151041F
:10411000B0915204BC01CD010E94132D643F714047
:104120008105910530F560914F04709150048091A4
:1041300051049091520404EF11E020E030E06093CC
:104140004B0470934C0480934D0490934E04009361
:104150004704109348042093490430934A04BE81D5
:10416000B09345042D81209346042696E4E00C94F8
:10417000A6350E94E72C02E310E020E030E0DFCF1C
:104180001F93CF93DF93182F80915604909157047B
:10419000892B09F44EC010924604109245040E94E7
:1041A000C7100E94C110A0915604B09157041696F2
:1041B000CD91DC911797CE019A9581159F4108F416
:1041C000D07ED1E0C11101C0D0E01996ED91FC91F3
:1041D0001A97309731F01B966D917C9180E009958C
:1041E000D823DD2339F08CEF8C0F813A30F58C2FFA
:1041F0000E94DC2B1123A9F0E0915604F0915704A2
:10420000808584FD0EC080915504882351F0808103
:1042100091819C01215031092F333E4710F40E94B7
:104220007A200E949811109257041092560410920E
:104230005504DF91CF911F9108950E9498118C2F02
:104240000E942209D7CF1092060180E00E94C02070
:10425000089580910601882319F00E942321089572
:1042600081E0809306010895A4E0B0E0EAE3F1E282
:104270000C948C358091450490914604892BD9F19A
:1042800020914B0430914C0440914D0450914E04C8
:10429000CA01B9010E94132D69837A838B839C83A1
:1042A0008091470490914804A0914904B0914A0438
:1042B00029813A814B815C81281739074A075B07BE
:1042C000D0F080914504909146040E94F50610922A
:1042D00046041092450410924B0410924C04109224
:1042E0004D0410924E04109247041092480410920C
:1042F000490410924A042496E2E00C94A835A0E008
:10430000B0E0E5E8F1E20C947D358C01EB015D80D5
:104310005520D1F08E359C4781F00F358CE718077A
:1043200081F00D359CE7190779F40E94292180E07E
:10433000CDB7DEB7E1E10C94993581E080930601B9
:10434000F6CF0E942321F3CF80910601811102C094
:1043500081E0EECF5801A0EEAA1AB1080E94991090
:10436000F82E0E945E10482E0E94CA104F28482A3C
:10437000B8E0AB16B10408F0BAC098012770332733
:1043800081E090E001C0880F2A95EAF7552009F4F2
:10439000ABC0482A888199810E94230D8090040136
:1043A00090900501C0905604D09057048114910458
:1043B00009F414C121E030E0390102C0660C771C19
:1043C0008A95E2F7312CE32DF0E0EE0FFF1FE80DA8
:1043D000F91DC081D181209709F400C1411003C0AB
:1043E0008A818111CEC08B8190E086219721892B13
:1043F00009F4C7C08885982F97709111B5C0E8E07F
:10440000AE16B10408F0BFC05110B6C0E880F98004
:104410000E151F0509F4B5C0CC15DD0509F4B1C0B2
:10442000ED85FE85309721F08081882309F4A9C0AD
:10443000642DCE010E945920882309F4A2C00E15D4
:104440001F0511F4511005C0E114F10409F0A3C0D7
:10445000512C80E00E94C020D0935704C093560492
:1044600081E0809355048D810E94C41051100EC0CC
:10447000E114F10459F0888199819C01245031099B
:10448000213A310508F08FC00E94DC2B0E811F817C
:10449000C8019A9581159F4108F4107EFF24F3947A
:1044A000C80101978F339E4708F0F12CE985FA8502
:1044B000309729F06B857C8581E00995F82281E0B1
:1044C0005826FF2071F08E819F810E94C1060E94B4
:1044D000BE10C801B8E0AB16B10408F067C00E9476
:1044E0007A200E94981169C08095482253CF5110BC
:1044F00028C080915304909154048017910781F44F
:10450000109254041092530410924F0410925004CD
:1045100010925104109252041092460410924504D5
:10452000E0915604F0915704309709F411CF80813F
:1045300091810817190709F00BCF1092550480E0FC
:104540005CC010935404009353040E94E72C6093C2
:104550004F0470935004809351049093520410922E
:1045600046041092450416CFF8E0AF16B10470F47B
:10457000552029F081FF05C0E880F9804DCF82FDEC
:1045800045CF339420CF5110F7CFFBCF5520C9F33F
:1045900080FFF7CFF1CF80915304909154048E1592
:1045A0009F0579F755CF0E94220970CF0497813A71
:1045B000910540F4802F0E94C52B5110C9CE0E9456
:1045C0009811B5CE0E949811EFE3FCE93197F1F70D
:1045D00000C00000802F0E94D508EFCFC114D10485
:1045E00009F4B6CEF8E0AF16B10450F4642DC6015C
:1045F0000E9459208111ACCE81E00E94C020A8CE3B
:10460000D6018D919C9111978017910741F4552007
:1046100009F493CF18968C9185FD9ACE90CF5520B2
:1046200009F496CEF6018085F7CFCF93DF93EC01A6
:10463000FB018581882309F4D2C09E0130572332C3
:10464000310508F0B2C00E942E1290937E04809330
:104650007D04FE01E150F047E232F10520F4EE5412
:10466000F94C0C946F3580917D04816080937D04BA
:1046700093C080917E04886080937E048DC0809179
:104680007D048260F3CF80917D048460EFCF8091C0
:104690007D048860EBCF80917E048160EDCF8091B6
:1046A0007E048260E9CF80917D048061DFCF8091BC
:1046B0007D048062DBCF80917D048064D7CF0E942F
:1046C000050C80917D048068D1CF80917D048C6041
:1046D000CDCF80917E048360CFCF80917D048E7F8B
:1046E000C5CF80917E04877FC7CF80917D048D7F69
:1046F000BDCF80917D048B7FB9CF80917D04877F72
:10470000B5CF80917E048E7FB7CF80917E048D7F60
:10471000B3CF80917D048F7EA9CF80917D048F7D62
:10472000A5CF80917D048F7BA1CF0E94050C809145
:104730007D048F779BCF80917D04837F97CF80917D
:104740007E048C7F99CF80917D0482FB992790F91C
:1047500021E0922790FB82F990FB83F987CF80912B
:104760007E04982F909591708E7F892B90FB81F914
:1047700083CF90917D04892F8F7B96FF806476CFC5
:104780000E94050C90917D04892F97FB87F9805832
:104790006DCF81E00E94BE1280917D0490917E04D5
:1047A0000E9433120E94050C80E0DF91CF910895A2
:1047B00080E0F0CF90917D04892F8F7E94FF8061FF
:1047C00055CF90917D04892F8E7F90FF81604ECFD1
:1047D00090917E04892F877F93FF88604DCF81E081
:1047E000E4CF282F35EB2303C001112497FF04C029
:1047F00080589109892F089580589F4FFBCF809151
:104800005E0480FF0DC060910C0170E0660F771FA1
:1048100060387105C0F561157105B9F1862F0895ED
:1048200081FF07C060910C0184E0689FB0011124F2
:10483000EFCF82FF04C060910C0188E0F6CF809139
:104840005D048823E9F090910B0160910C0170E008
:10485000891730F093E0660F771F9A95E1F7D8CF6C
:10486000869F9001879F300D112483E0220F331F14
:104870008A95E1F7692F70E0C9010E945B35C8CFC6
:1048800068E070E0CBCF8FE7089581E008958091D4
:104890005E0480FF0CC06091080170E0759567951B
:1048A000759567956115710561F1862F089581FFF2
:1048B00006C06091080170E075956795F3CF60912F
:1048C000080170E082FD15C020915C042223B1F044
:1048D000909107016091080170E0291750F4269F1C
:1048E000A001279F500D1124692F70E0CA010E947A
:1048F0005B3560387105B0F28FE7089561E070E0D4
:10490000D4CF81E008959091610420916204922BAC
:1049100020916404922B20916304922B992331F00F
:1049200098E090935D0491E090935C048D3C31F4A9
:104930000E94FF238195809362040895E2E3E80FCB
:10494000E231B0F5F0E0EC52F94C0C946F350E9476
:10495000FF23F1CF0E94FF23819580936104089586
:104960000E94FF23FACF0E94472480936304089596
:104970000E9447248195F9CF0E9447248195809316
:10498000640408950E944724FACF815D990B21E0C9
:1049900030E001C0220F8A95EAF780916004822BF3
:1049A00080936004089580915E04816080935E042A
:1049B000089580915E048260F9CF80915E048460E6
:1049C000F5CF409161048D3C59F48091620487FFDA
:1049D0000DC010926204442359F410925D0408C083
:1049E0008E3C81F48091620418169CF3442381F07C
:1049F0008091630490916404892B811159C01092B5
:104A00005C0408958F3C41F447FFF0CF109261049D
:104A1000809162048823E0CF803D19F41416B4F32A
:104A2000E5CF90916304893D29F41916FCF61092A4
:104A30006304DCCF8A3D19F497FFD8CFF8CF90916B
:104A400064048B3D29F497FFD1CF10926404CECF3C
:104A50008C3D19F41916CCF3C9CF9FE2980F98300A
:104A600090F4815D990B21E030E0B90102C0660F3E
:104A7000771F8A95E2F7CB01809590916004892396
:104A800080936004B3CF8D3D31F480915E048E7FBE
:104A900080935E04ABCF8E3D21F480915E048D7FC8
:104AA000F7CF8F3D09F0A2CF80915E048B7FF0CFCE
:104AB00008958091A30383FF7EC084E698E00E945E
:104AC000DB05809160041F928F938FE598E09F93A0
:104AD0008F930E9474068DE598E00E94DB0580911B
:104AE0006104282F082E000C330B3F938F938AE527
:104AF00098E09F938F930E94740688E598E00E9447
:104B0000DB0580916204282F082E000C330B3F93A5
:104B10008F9385E598E09F938F930E94740683E5B9
:104B200098E00E94DB0580916304282F082E000C7A
:104B3000330B3F938F9380E598E09F938F930E9470
:104B400074068EE498E00E94DB0580916404282FAF
:104B5000082E000C330B3F938F938BE498E09F93C8
:104B60008F930E94740688E498E00E94DB05809190
:104B70005D041F928F9385E498E09F938F930E942A
:104B8000740683E498E00E94DB0580915E041F9226
:104B90008F9380E498E09F938F930E9474068DE337
:104BA00098E00E94DB058DB79EB74C960FB6F8943F
:104BB0009EBF0FBE8DBF0E94DB2C209161043091FF
:104BC0006204232B222321F080935A0490935B04E8
:104BD0002091630430916404232B222321F08093DD
:104BE0005804909359048FE594E00E94BB2A0895DD
:104BF00086E0EFE5F4E0DF011D928A95E9F7109277
:104C00005D0410925C0410925E040895FC018281A0
:104C100081110DC0838181110AC08481811107C077
:104C200081E09581911101C080E08170089581E05B
:104C3000FCCFA6E0B0E0EFE1F6E20C94893586E027
:104C4000EFE5F4E09E012F5F3F4FD90101900D92F7
:104C50008A95E1F710926104109262041092630445
:104C6000109264048B819C81892B8901882391F0A7
:104C700080915A0490915B040E94042D9C018091C4
:104C80005D048823C9F140910D0150E0421753079C
:104C900008F43FC08D819E81892B882399F08091F3
:104CA0005804909159040E94042D9C0180915C0449
:104CB000882309F467C04091090150E04217530767
:104CC00008F46EC0B8018FE594E00E940D2C8111AC
:104CD00005C08FE594E00E94062681110E945925A7
:104CE00086E0F801AFE5B4E001900D928A95E1F716
:104CF0002696E5E00C94A53540910E019AE0499F77
:104D0000A00111244217530728F68F5F80935D049A
:104D100002C08F3FD1F7FB80FF2059F00E94FF2394
:104D200091E01F140CF09FEF899F802D1124809338
:104D30006104FC80FF2059F00E94FF2391E01F14C2
:104D40000CF09FEF899F802D112480936204809145
:104D50006104882309F49ECFF0906204FF2009F4D7
:104D600099CF0E94F123811101C081E080936104F9
:104D70008F2D0E94F123882319F0809362048ACF3B
:104D800081E0FBCF40910A019AE0499FA0011124E4
:104D90004217530708F096CF8F5F80935C0402C0E0
:104DA0008F3FD1F7FD80FF2059F00E94472491E00A
:104DB0001F140CF09FEF899F802D112480936304B2
:104DC000FE80FF2059F00E94472491E01F140CF050
:104DD0009FEF899F802D1124809364048091630448
:104DE000882309F46FCFF0906404FF2009F46ACFA0
:104DF0000E94F123811101C081E0809363048F2D13
:104E00000E94F123882319F0809364045BCF81E032
:104E1000FBCFFF920F931F93CF93DF93E82FF0E028
:104E2000E957F74FF490282F26952695269530E0E0
:104E3000F901E95DF64F94918770F901E95EF64F4B
:104E4000049110E0082E02C0159507950A94E2F728
:104E500001701127F901E95FF64FC491D0E0082EE7
:104E600002C0D595C7950A94E2F7C170DD27E92FF6
:104E7000F0E002C0F595E7958A95E2F7E0FD10C0F5
:104E800001151105C1F48F2D0E946D09CD2B19F06C
:104E90008CE20E946D09CDB7DEB7E5E00C94A53534
:104EA00081EE0E94D5080115110579F48F2D0E941D
:104EB0006D0981EE07C086EE0E94D5088F2D0E94F5
:104EC0006D0986EE0E942209E1CF86EE0E94D50888
:104ED0008F2D0E946D0986EE0E942209EACFEF9283
:104EE000FF921F93CF93DF93EC01162F88818823C5
:104EF00009F456C0813009F050C089818130A1F495
:104F00007E0122E0E20EF11C8A810E946D09E70118
:104F10002196812F882351F3EFE9FFE03197F1F7D4
:104F200000C000008150F6CF823041F47E0182E063
:104F3000E80EF11C8A810E94D508E9CF833041F444
:104F40007E01E2E0EE0EF11C8A810E942209DFCF91
:104F5000843011F02196DCCF2A81229680E090E007
:104F60006AE0AE014F5F5F4F2053330B2A303105AB
:104F700048F0019768F2EFE9FFE03197F1F700C0E0
:104F80000000F7CF689FF001699FF00D1124C9015F
:104F90008E0F9F1F2981EA01E4CF0E940927B8CF15
:104FA000DF91CF911F91FF90EF90089560E00E94F4
:104FB0006F2708950F931F93CF93DF93C42FD22FA2
:104FC000FC0185818823C9F0409367040E94DB2C93
:104FD000909366048093650480E28C0F883040F4DF
:104FE000C77081E001C0880FCA95EAF70E94760970
:104FF000DF91CF911F910F910895109167041413C1
:105000003CC080916504909166040E94042D883C08
:10501000910598F5C0E2CD0F1D1741F180E2810F97
:10502000883040F4177081E001C0880F1A95EAF7C4
:105030000E947D09C83020F0802F0E946D09D8CFD2
:1050400091E08D2F877001C0990F8A95EAF7892F1B
:105050000E947609802F0E946D09D77081E001C0FF
:10506000880FDA95EAF70E947D09C2CF802F0E944F
:105070006D09C83008F0BCCFF0CF80E28C0F8830CB
:1050800008F0B6CFC77081E001C0880FCA95EAF773
:10509000EACF0F93FC01CB01E851FC47E730F10563
:1050A00090F5EA51F94C0C946F3506E221EE41EE91
:1050B0006AE17CE70E94DA2780E00F91089507E219
:1050C00025EE45EE6BE17CE7F5CF06E221EE40EE02
:1050D00068E17CE7EFCF07E225EE44EE69E17CE78B
:1050E000E9CF06E221EE42EE6CE17CE7E3CF07E296
:1050F00025EE46EE6DE17CE7DDCF08E221E045EEEE
:105100006EE17CE7D7CFFB018581811110926704A6
:1051100081E0D3CFCF93DF939C01FB0127378CE74E
:10512000380739F028373C47F1F081E0DF91CF9123
:1051300008958581882391F00E94BC280E947F0CED
:105140000E94C228D82F0E94BF28C82F0E94BC28C6
:105150004D2F6C2F0E94B10D80E0E8CF0E94BC283B
:105160000E948B0CEDCF8581882319F00E94BF2807
:10517000E5CF0E94BF28F4CF80911101089580915E
:105180001001089580910F01089585E290E00E943A
:10519000FD35813F89F486E290E00E94FD358E3630
:1051A00059F487E290E00E94FD3591E08B3D09F0D3
:1051B00090E0892F8170089580E0FCCF882381F0F2
:1051C00061EF85E290E00E941B366EE686E290E099
:1051D0000E941B366BED87E290E00E941B3608951B
:1051E0006FEF85E290E00E941B366FEF86E290E061
:1051F0000E941B366FEFEFCF0895A4E0B0E0E3E02C
:10520000F9E20C948C3588E290E00E94FD35282F5D
:1052100030E040E050E0CA01B9012496E2E00C948D
:10522000A8350895CF93C62F0E9411296C2F88E2CC
:1052300090E00E941B36CF91089580E00E94DE2806
:1052400060E070E0CB010E9412290E94191E0E94AA
:10525000611F81E00E94DE2808950E94FC280E94C0
:10526000FD280E9411290E94C528811102C00E94B8
:105270001D2908959C01FB018581882351F0A90116
:1052800057574038510530F4822F0E94711F80E03B
:10529000089581E00895AEE0B0E0E1E5F9E20C9414
:1052A0008B358D839E83162FAD81BE81EC918091CD
:1052B000360490913704892B79F0EE3F31F5119641
:1052C0008C91833018F085508330F8F4612F8D81F4
:1052D0009E810E94511819C0E43150F4EE2351F020
:1052E000E150E33138F4F0E0E351F94C0C946F35C0
:1052F000EE3F61F3612F8D819E810E947D0605C086
:10530000ED81FE81118289E08283612F8D819E81F2
:105310000E94C62D2E96E3E00C94A735AD81BE8188
:1053200011968C91823079F08330D1F0813011F771
:105330000E94E72C0E947535ED81FE8162837383A4
:1053400084839583E2CF0E94FD280E947535AD814C
:10535000BE8112966D937D938D939C931597D5CFB7
:105360008091380490913904892B79F280E00E9471
:105370003616ED81FE81828381E00E943616AD8172
:10538000BE8113968C9382E00E943616ED81FE81D9
:105390008483BBCFAD81BE8111968C9111978230F1
:1053A00009F0A8CF12968D919D910D90BC91A02DE2
:1053B000BC01CD010E9475350E941229A6CFED8156
:1053C000FE814381628181810E94B11D98278927D6
:1053D0009827AD81BE8115969C938E93149795CF97
:1053E000ED81FE81248135813227232732274381B5
:1053F000628181810E94D31D88CF0E94191E85CFB2
:105400008FEFAD81BE818C9380CF0E94191FED81FB
:10541000FE8181837ACF0E941B1F982789279827B6
:10542000AD81BE8112969C938E9311976ECFED81C4
:10543000FE818381682F70E08D3108F066CF818115
:105440009281AF014C5F5F4F9827892798270E9470
:105450001E1F5BCF8091380490913904892B09F489
:1054600054CFAD81BE8113968C911397682F70E055
:105470008D3108F04ACF11968D919C911297AD0114
:105480004C5F5F4F9827892798270E94401F3DCF88
:105490000E94611F3ACF0E949F1DB9CFAD81BE818E
:1054A00013968C911397682F70E08D3108F02DCFF3
:1054B00011968D919C911297AD014C5F5F4F98278B
:1054C000892798270E94761E20CFED81FE81838157
:1054D000682F70E08D3108F018CF81819281AF0183
:1054E0004C5F5F4F9827892798270E94951E0DCF04
:1054F0008091380490913904892B09F406CF8D816D
:105500009E810E94C62DFFEF21EE84E0F1502040E5
:105510008040E1F700C000000E94572DF6CE909326
:105520006D0480936C040895E0916C04F0916D0417
:10553000309729F00190F081E02D0995089580E0E1
:105540000895E0916C04F0916D04309721F0028091
:10555000F381E02D09950895DC01E0916C04F09150
:105560006D04309739F086E08C930480F581E02D4E
:10557000CD0109950895DC01E0916C04F0916D0472
:10558000309739F082E08C930680F781E02DCD01D1
:1055900009950895A3E0B0E0E0EDFAE20C948C35B3
:1055A0009C0180916A0490916B0482179307A1F08B
:1055B00030936B0420936A04E0916C04F0916D04C5
:1055C000309751F083E089833B832A830084F185FF
:1055D000E02DCE01019609952396E2E00C94A835C2
:1055E000A3E0B0E0E6EFFAE20C948C359C018091E8
:1055F00068049091690482179307A1F030936904BD
:1056000020936804E0916C04F0916D04309751F0A0
:1056100084E089833B832A830084F185E02DCE01D9
:10562000019609952396E2E00C94A8352091020199
:10563000309103012E5F3F4F80911C018823A9F018
:1056400080917D0487FF11C02091000130910101FC
:105650002E5F3F4F9DE180E0F90140812F5F3F4F7A
:1056600041118F5F9150C0F7089595E0F4CF8823E2
:1056700021F190911C01992311F190917D0497FFE4
:105680001EC0982F969596959695803FB0F4E09120
:105690000001F0910101E90FF11D228130E08770D6
:1056A00041E050E0BA0102C0660F771F8A95E2F729
:1056B0002623372381E0232B91F480E00895209165
:1056C000020130910301F9013296285F3F4F919119
:1056D000981721F0E217F307D1F7EFCF81E0089593
:1056E0009C01FC0132968FEF90E04191461751F0FA
:1056F0008F3F19F4411101C0892F9F5F9630A9F7A0
:105700008F3F09F40895280F311D87FD3A95F9015F
:10571000628308959C01FC013296285F3F4F81917E
:10572000861303C0DF0111971C92E217F307B9F744
:105730000895FC01862F869586958695603F60F4D6
:10574000E80FF11D677021E030E001C0220F6A957B
:10575000EAF78281822B82830895FC01862F869549
:1057600086958695603F80F4E80FF11D677081E0B3
:1057700090E09C0102C0220F331F6A95E2F7B90145
:1057800060958281682362830895682F80911C014F
:10579000882359F080917D0487FF07C08091000124
:1057A000909101010E94992B08958091020190919E
:1057B00003010E94702B0895682F80911C0188239B
:1057C00059F080917D0487FF07C08091000190917E
:1057D00001010E94AD2B0895809102019091030177
:1057E0000E948A2B089580911C01882379F0809172
:1057F0007D0487FF0BC0E0910001F091010132961A
:105800008EE1DF011D928A95E9F70895E09102018A
:10581000F0910301329686E0F4CFDC01FB01119692
:105820009C9111978181981322C012968C911297A6
:10583000882319F0928189131AC013968C911397BB
:10584000882319F09381891312C015968C911597AE
:10585000882319F0958189130AC014969C91992385
:1058600021F081E02481291303C080E001C081E0A0
:105870008170089508950E943A2C08958F5F809357
:105880006E040E943B2C089583E080936E040E9476
:105890003B2C08950E943E2C089581E080936E0475
:1058A0000E943B2C08950E944D2C08950895089560
:1058B0000E94572C0895089508950E94562C08952B
:1058C000CF930E945B2C0E942F170E945C2CC0E09B
:1058D0008C2F0E943616811105C0CF5FC330C1F7EF
:1058E000CF91089581E0FCCF85B7806885BF85B7EB
:1058F000806885BF08951F921FB61F9211248F9351
:105900009F93AF93BF9380916F04811113C08091D7
:10591000870490918804A0918904B0918A044196EB
:10592000A11DB11D8093870490938804A0938904DE
:10593000B0938A04BF91AF919F918F911F901FBE2A
:105940001F90189580918F04843031F10E942408B3
:1059500010926F0488E190E020E40FB6F894A895C7
:10596000809360000FBE2093600083B7817F8460C6
:1059700083BF83B7816083BF7894889583B78E7F18
:1059800083BF0FB6F894A8958091600088618093DA
:105990006000109260000FBE08950E94050C0E94E6
:1059A0002908089582E084BD93E095BD9AEF97BDE4
:1059B00080936E0008952FB7F8948091870490919A
:1059C0008804A0918904B0918A042FBF0895A4E0AF
:1059D000B0E0EDEEFCE20C948C358FB7F89420919A
:1059E0008704309188044091890450918A04298366
:1059F0003A834B835C838FBF69817A818B819C81E1
:105A00002496E2E00C94A8359C014FB7F89480915D
:105A1000870490918804A0918904B0918A044FBFB3
:105A2000821B930B0895A4E0B0E0E9E1FDE20C9441
:105A30008A35462F572FBC012FB7F89480918704E1
:105A400090918804A0918904B0918A042FBF8C01A1
:105A50009D01041B150B260B370BC901B8012496B9
:105A6000E4E00C94A63578941F921FB61F9211247F
:105A70008F939F93AF93BF938091870490918804F5
:105A8000A0918904B0918A040196A11DB11D809353
:105A9000870490938804A0938904B0938A04BF91EB
:105AA000AF919F918F911F901FBE1F90189587E710
:105AB00097E7909301088093000888E19AE00FB679
:105AC000F894A895809360000FBE90936000FFCF7C
:105AD00088E19AE00FB6F894A895809360000FBE15
